:020000040000FA
:060000000A128A110C280F
:10000800FE00030EFA000A08FB000A128A112328D0
:100018000A128A110F28F001F101F201F301F4012B
:10002800F501F601F70183120313A001A101A20152
:10003800A301A401A50183010A128A11F4288312DD
:1000480003130C1F282829288B281F0CF800780C6C
:100058000F39003A031D312832285A281E08F800A3
:100068000310780C3E3E95001E080139F800F80E82
:10007800F80D17087806DF397806970083160313FA
:100088001E08F80007300310F80CFF3E031D472830
:100098007808F900F90E8312031317087906EF3967
:1000A800790697001F08C33904389F001F0CF80011
:1000B800780C0F39013A031D6228632889281E0825
:1000C800F8000310780C3E3E9B001E080139F8002A
:1000D800F80EF80D1D087806DF3978069D0083169E
:1000E80003131E08F80007300310F80CFF3E031D29
:1000F80078287808F900F90E831203131D08790689
:10010800EF3979069D00C3309F050C139F147B08B7
:100118008A007A0E8300FE0E7E0E090083160317EE
:100128000814881408158316031305148514051577
:10013800061487100711081088100811831203137A
:100148008501860187018801831603130F178F160F
:100158000F160F149F131F129F12831203131F08E9
:100168003F3980389F00C3309F0520308312031326
:10017800A600A60BBD280000831203131F14F93034
:1001880083160313920007153F3083120313970554
:100198001708F0390C3897000F309500CF309705C5
:1001A800831603138714831203131D08F0390C38C0
:1001B8009D000F309B009D128C1003309204121585
:1001C8008C1CE728E828E4288C10831603130711F1
:1001D80087108B170B170C17831203130C130800C7
:1001E8000A128A1192200A128A11F9280A128A110F
:0201F8000C28D1
:04400E00D430FF3F6C
:00000001FF
