:020000040000FA
:060000000A128A110C280F
:10000800FE00030EF2000A08F3000A128A111328F0
:100018000A128A110F2883010A128A11F228831200
:1000280003130C1F1828192893281F0CF000700CB4
:100038000F39053A031D212822284A281E08F000F6
:100048000310700C3E3E95001E080139F000F00EBA
:10005800F00D17087006DF39700697008316031332
:100068001E08F00007300310F00CFF3E031D372870
:100078007008F100F10E8312031317087106EF39A7
:10008800710697001F08C33918389F001F0CF0002D
:10009800700C0F39063A031D522853287B281E0876
:1000A800F0000310700C3E3E9B001E080139F00062
:1000B800F00EF00D1D087006DF3970069D008316DE
:1000C80003131E08F00007300310F00CFF3E031D59
:1000D80068287008F100F10E831203131D087106D9
:1000E800EF3971069D001F08C3391C389F001F0C8B
:1000F800F000700C0F39073A031D832884288A28DA
:100108001E0885001F08C33914389F000C131030CF
:10011800F000F00B8D280000831203139F1473085E
:100128008A00720E8300FE0E7E0E090083160317E6
:100138008816081788178316031385018601870117
:10014800880109148914091583120313850186018E
:10015800870188018901831603130F178F160F165D
:100168000F149F131F129F12831203131F083F3986
:1001780080389F00C3309F052130F400F40BC2285B
:10018800831203131F14BC30831603139200071540
:10019800831203131708F0390C3897000F309500B5
:1001A800CF309705831603138714831203131D0892
:1001B800F0390C389D000F309B009D128C100330D5
:1001C800920412158C1083160313071187108B17CE
:1001D8000B170C17831203130C1308000A128A1149
:1001E8009A200A128A111030F500F50BF928000040
:0E01F800831203139F14FF280A128A110C2889
:04400E00D420FF3F7C
:00000001FF
