:020000040000FA
:060000000A128A110C280F
:10000800FE00030EF2000A08F3000A128A11CD2836
:100018000A128A110F2883010A128A1113280A1258
:100028008A113A210A128A11831203139F14322863
:1000380008140330F6009730F500F50B2128F60B6D
:10004800212826288312031308103230F60058306E
:10005800F500F50B2D28F60B2D280000831203134D
:100068000618372838281C284F2808140630F600A8
:100078003030F500F50B3E28F60B3E2800008312C1
:10008800031308102F30F600BF30F500F50B4A288F
:10009800F60B4A284F28831203138618542855282C
:1000A80039286C2888140330F6009730F500F50BD2
:1000B8005B28F60B5B286028831203138810323004
:1000C800F6005830F500F50B6728F60B6728000096
:1000D8008312031306197128722856288928881450
:1000E8000630F6003030F500F50B7828F60B782846
:1000F80000008312031388102F30F600BF30F5007C
:10010800F50B8428F60B8428892883120313061A12
:100118008E288F287328A62808150330F6009730F4
:10012800F500F50B9528F60B95289A2883120313EA
:1001380008113230F6005830F500F50BA128F60BFF
:10014800A128000083120313861AAB28AC28902834
:10015800C32808150630F6003030F500F50BB22834
:10016800F60BB22800008312031308112F30F60093
:10017800BF30F500F50BBE28F60BBE28C328831246
:100188000313061BC828C928AD2832280A128A1169
:100198000C28831203130C1FD228D32833291F0CD1
:1001A800F000700C0F39003A031DDB28DC28052904
:1001B8001E08F0000310700C3E3E95001E08013921
:1001C800F000F00EF00D17087006DF397006970082
:1001D800831603131E08F00007300310F00CFF3ECF
:1001E800031DF1287008F100F10E8312031317089C
:1001F8007106EF39710697001F08C33904389F004C
:100208002B291E08F0000310700C3E3E9B001E08B0
:100218000139F000F00EF00D1D087006DF39700688
:100228009D00831603131E08F00007300310F00C1E
:10023800FF3E031D1A297008F100F10E8312031303
:100248001D087106EF3971069D00C3309F052130E6
:10025800F000F00B2D29831203130C139F1473085D
:100268008A00720E8300FE0E7E0E090083160317A5
:1002780008148814081589018316031305148514B6
:10028800051501308600071087100711871107121E
:1002980087120713871788018901831203138501C1
:1002A8008601870188018901831603130F178F16AA
:1002B8000F160F149F131F129F12831203131F0888
:1002C8003F3980389F00C3309F051F142130F40048
:1002D800F40B6C29F93083160313920007153F308D
:1002E8008312031397051708F0390C3897000F305D
:1002F8009500CF30970583160313871483120313D1
:100308001D08F0390C389D000F309B009D128C1091
:100318000330920412158C1C922993298F298C1072
:1003280083160313071187108B170B170C178312EB
:0603380003130C13080082
:04400E00D430FF3F6C
:00000001FF
