:020000040000FA
:060000000A128A110C280F
:10000800FE00030EF7000A08F8000A128A11C02938
:100018000A128A110F28F001F101F201F301F4012B
:1000280083120313A001A101A201A301A401A50148
:10003800A601A701A801A901AA01AB01AC01AD0164
:1000480083010A128A112E28FF0000308A007F08D7
:1000580082072D280A128A1144220A128A110030B6
:1000680083120313AE00AF0061300A128A112B24E9
:100078000A128A11013083120313AE000030AF0058
:100088006E300A128A112B240A128A110230831246
:100098000313AE000030AF0064300A128A112B241B
:1000A8000A128A11033083120313AE000030AF0026
:1000B80079300A128A112B240A128A1102300A1284
:1000C8008A1108240A128A1169300A128A1108242E
:1000D8000A128A1121300A128A1108240A128A1176
:1000E80080300A128A1108240A128A1139300A1239
:1000F8008A1108240A128A1197300A128A110824D0
:100108000A128A1151300A128A1108240A128A1115
:100118009128D330B0003008F400831203138C1EEA
:10012800962897288D28EB280A128A11D5230A12B7
:100138008A1130300A128A114A240A128A11622856
:100148000A128A119E230A128A1135300A128A115C
:100158004A240A128A1162280A128A1130230A12C2
:100168008A1130300A128A114A240A128A11622826
:100178000A128A1167230A128A1135300A128A1163
:100188004A240A128A1162280A128A11C2220A1201
:100198008A1130300A128A114A240A128A116228F6
:1001A8000A128A11F9220A128A1135300A128A11A2
:1001B8004A240A128A1162280A30AE000030AF00C1
:1001C8001E080A128A112B240A128A11622874083E
:1001D800B000B1013108003A0319F3286228300849
:1001E800313A03199828033A0319A428013A031944
:1001F800B028073A0319BC28013A0319C828033A5A
:100208000319D428013A0319E02862280A128A112E
:100218000C2801308A000408840A820700340A3452
:100228000D342034513475346534203461346334EA
:10023800633469346F346E34203464346534733411
:1002480065346134203465346A3465346334753414
:100258007434613472343F3420340D340034203423
:100268003234293420344D346F3476346534723462
:1002780020346134203434343534203473346534D4
:10028800723476346F34313420340D3400342034F1
:100298003334293420344D346F3476346534723431
:1002A80020346134203434343534203473346534A4
:1002B800723476346F34323420340D3400342034C0
:1002C8003334293420344D346F3476346534723401
:1002D8002034613420343434353420347334653474
:1002E800723476346F34333420340D34003420348F
:1002F8003134293420344D346F34763465347234D3
:10030800203461342034303420347334653472340A
:1003180076346F34313420340D340034203433349F
:10032800293420344D346F347634653472342034B3
:100338006134203430342034733465347234763484
:100348006F34323420340D340034203433342934BB
:1003580020344D346F34763465347234203461344B
:1003680020343034203473346534723476346F3446
:10037800333420340D340034831203130C1FC52981
:10038800C6293D2A1F0CF500750C0F39003A031DCC
:10039800CE29CF29F7291E08F5000310750C3E3E1B
:1003A80095001E080139F500F50EF50D17087506BC
:1003B800DF3975069700831603131E08F50007300A
:1003C8000310F50CFF3E031DE4297508F600F60E30
:1003D8008312031317087606EF39760697001F086D
:1003E800C33904389F001F0CF500750C0F39013A0A
:1003F800031DFF29002A282A1E08F5000310750C82
:100408003E3E9B001E080139F500F50EF50D1D084E
:100418007506DF3975069D00831603131E08F5005F
:1004280007300310F50CFF3E031D152A7508F6006A
:10043800F60E831203131D087606EF3976069D0023
:100448001F08C33908389F001F0CF500750C0F39B9
:10045800023A031D302A312A352A1E088900C33082
:100468009F052130F500F50B372A831203130C136F
:100478009F1478088A00770E8300FE0E7E0E09000E
:100488008316031708148814081583160313051414
:10049800851405150614871007110810881008110F
:1004A8008901831203138501860187018801890167
:1004B800831603130F178F160F160F14161496149E
:1004C8008117151495149F131F129F12831203137B
:1004D8001F083F3980389F00C3309F052130F9003D
:1004E800F90B742A831203131F14F93083160313AC
:1004F800920007153F308312031397051708F03948
:100508000C3897000F309500CF30970583160313EA
:100518008714831203131D08F0390C389D000F301F
:100528009B009D128C100330920412158C108316B8
:100538000313071187101812181583160317871548
:100548000C308316031399009A018312031398172A
:10055800181318168316031398168B170B178B1579
:100568000B100C17831203130C134230F900F90B0C
:10057800BB2A0000831203139F140800831203137D
:10058800A401A5012508803AFF0080307F02031DE1
:10059800CF2A10302402031CD22AD32AD42AF82ABC
:1005A800831203130815033083120313AF00973027
:1005B800AE00AE0BDD2AAF0BDD2A83120313081140
:1005C800323083120313AF005730AE00AE0BEA2A65
:1005D800AF0BEA2AEF2A013083120313A40703188A
:1005E800A50A0030A507C62A080083120313A20132
:1005F800A3012308803AFF0080307F02031D062BE9
:1006080010302202031C092B0A2B0B2B2F2B8312D1
:1006180003130815043083120313AF00E330AE0050
:10062800AE0B142BAF0B142B192B831203130811C9
:10063800313083120313AF000B30AE00AE0B222B08
:10064800AF0B222B013083120313A2070318A30A4E
:100658000030A307FD2A080083120313A801A9018B
:100668002908803AFF0080307F02031D3D2B10309F
:100678002802031C402B412B422B662B83120313A9
:100688008814033083120313AF009730AE00AE0B0B
:100698004B2BAF0B4B2B8312031388103230831272
:1006A8000313AF005730AE00AE0B582BAF0B582BCF
:1006B8005D2B013083120313A8070318A90A003021
:1006C800A907342B080083120313A601A7012708E2
:1006D800803AFF0080307F02031D742B1030260201
:1006E800031C772B782B792B9D2B831203138814EB
:1006F800043083120313AF00E330AE00AE0B822B3D
:10070800AF0B822B872B831203138810313083128F
:100718000313AF000B30AE00AE0B902BAF0B902B3A
:10072800013083120313A6070318A70A0030A7078E
:100738006B2B080083120313AA01AB012B08803A24
:10074800FF0080307F02031DAB2B10302A02031CF0
:10075800AE2BAF2BB02BD42B831203130814043009
:1007680083120313AF00E330AE00AE0BB92BAF0B0F
:10077800B92BBE2B831203130810313083120313D5
:10078800AF000B30AE00AE0BC72BAF0BC72B013041
:1007980083120313AA070318AB0A0030AB07A22B76
:1007A8000800F001F1017108803AFF0080307F02F3
:1007B800031DE02B10307002031CE32BE42BE52B08
:1007C800072C831203130814033083120313AF009A
:1007D8009730AE00AE0BEE2BAF0BEE2B831203134C
:1007E8000810323083120313AF005730AE00AE0B3F
:1007F800FB2BAF0BFB2B002C0130F0070318F10A81
:100808000030F107D72B080083120313AF001E2C0A
:100818002F0884000A128A110D210A128A110A125D
:100828008A114A240A128A11013083120313AE0076
:100838002E08AF072F0884000A128A110D210A1208
:100848008A11003A031D292C2A2C0C2C0800F900C7
:10085800831203132E08831203178D0079088C0066
:10086800831603178C130C158B1355308D00AA3083
:100878008D008C148B17831203130D1E442C452CEA
:100888003F2C0D12831603170C110800F900502C89
:10089800790883120313990083160313981C552CA7
:0608A800562C4C2C080048
:04400E00D430FF3F6C
:00000001FF
