:020000040000FA
:060000000A128A110C280F
:10000800FE00030EFA000A08FB000A128A1197295B
:100018000A128A110F28F001F101F201F301F4012B
:10002800F501F601F70183120313A001A101A20152
:10003800A301A401A50183010A128A11682AF60105
:10004800F70176037704031D2A282B285B28F4017F
:10005800F501831203130814033083120313A70056
:100068009730A600A60B3628A70B36288312031351
:100078000810323083120313A7005730A600A60BCE
:100088004328A70B432848280130F4070318F50A2A
:100098000030F5077508803AFF0080307F02031DA5
:1000A800572815307402031C5A285B282D28023063
:1000B80076067704031D612862289228F201F3016D
:1000C800831203130814043083120313A700E330C8
:1000D800A600A60B6D28A70B6D28722883120313A0
:1000E8000810313083120313A7000B30A600A60BAB
:1000F8007B28A70B7B280130F2070318F30A00308E
:10010800F3077308803AFF0080307F02031D8E28B2
:1001180015307202031C9128922864280330760651
:100128007704031D98289928C928F001F101831242
:1001380003138814033083120313A7009730A60013
:10014800A60BA428A70BA428831203138810323007
:1001580083120313A7005730A600A60BB128A70BDC
:10016800B128B6280130F0070318F10A0030F1076A
:100178007108803AFF0080307F02031DC5281530C2
:100188007002031CC828C9289B2804307606770407
:10019800031DCF28D028042983120313A401A50125
:1001A800831203138814043083120313A700E33067
:1001B800A600A60BDD28A70BDD28E228831203136F
:1001C8008810313083120313A7000B30A600A60B4A
:1001D800EB28A70BEB28013083120313A40703189D
:1001E800A50A0030A5072508803AFF0080307F0265
:1001F800031D002915302402031C03290429D428CF
:10020800053076067704031D0A290B293F29831236
:100218000313A201A30183120313081503308312E9
:100228000313A7009730A600A60B1829A70B1829B7
:10023800831203130811323083120313A7005730B7
:10024800A600A60B2529A70B25292A2901308312E8
:100258000313A2070318A30A0030A3072308803A50
:10026800FF0080307F02031D3B2915302202031C4A
:100278003E293F290F29063076067704031D4529B4
:1002880046297A2983120313A001A10183120313BB
:100298000815043083120313A700E330A600A60B49
:1002A8005329A70B532958298312031308113130F6
:1002B80083120313A7000B30A600A60B6129A70B16
:1002C8006129013083120313A0070318A10A003023
:1002D800A1072108803AFF0080307F02031D76299C
:1002E80015302002031C79297A294A290730760615
:1002F8007704031D802981298329F601F70101303C
:10030800F6070318F70A0030F7077708803AFF0066
:1003180080307F02031D922908307602031C95293C
:10032800962925280800831203130C1F9C299D2950
:10033800FF291F0CF800780C0F39003A031DA52976
:10034800A629CE291E08F8000310780C3E3E950019
:100358001E080139F800F80EF80D17087806DF397D
:1003680078069700831603131E08F8000730031059
:10037800F80CFF3E031DBB297808F900F90E83121B
:10038800031317087906EF39790697001F08C33950
:1003980004389F001F0CF800780C0F39013A031D30
:1003A800D629D729FD291E08F8000310780C3E3EEF
:1003B8009B001E080139F800F80EF80D1D08780694
:1003C800DF3978069D00831603131E08F8000730EE
:1003D8000310F80CFF3E031DEC297808F900F90E0C
:1003E800831203131D087906EF3979069D00C3307F
:1003F8009F050C139F147B088A007A0E8300FE0E5B
:100408007E0E09008316031708148814081583162E
:100418000313051485140515061487100711081011
:10042800881008118312031385018601870188014A
:10043800831603130F178F160F160F149F131F120F
:100448009F12831203131F083F3980389F00C3305F
:100458009F05203083120313A600A60B312A000043
:10046800831203131F14F930831603139200071520
:100478003F308312031397051708F0390C3897009B
:100488000F309500CF309705831603138714831216
:1004980003131D08F0390C389D000F309B009D1286
:1004A8008C100330920412158C1C5B2A5C2A582A83
:1004B8008C1083160313071187108B170B170C1753
:1004C800831203130C1308000A128A1106220A1257
:1004D8008A110A128A1123200A128A116D2A0A1215
:0404E8008A110C2841
:04400E00D430FF3F6C
:00000001FF
