:020000040000FA
:060000000A128A110C280F
:10000800FE00030EF2000A08F3000A128A11D6282D
:100018000A128A110F2883010A128A1113280A1258
:100028008A114E210A128A113430F600F130F50097
:10003800F50B1C28F60B1C282128831203139F1488
:100048003B2808140330F6009730F500F50B2A28F2
:10005800F60B2A282F288312031308103230F600D3
:100068005830F500F50B3628F60B362800008312B9
:100078000313061840284128252858280814063054
:10008800F6003030F500F50B4728F60B472800003E
:100098008312031308102F30F600BF30F500F50B5C
:1000A8005328F60B532858288312031386185D2803
:1000B8005E284228752888140330F6009730F5002A
:1000C800F50B6428F60B642869288312031388103B
:1000D8003230F6005830F500F50B7028F60B702812
:1000E80000008312031306197A287B285F289228B8
:1000F80088140630F6003030F500F50B8128F60B31
:10010800812800008312031388102F30F600BF30B7
:10011800F500F50B8D28F60B8D2892288312031312
:10012800061A972898287C28AF2808150330F60067
:100138009730F500F50B9E28F60B9E28A32883120E
:10014800031308113230F6005830F500F50BAA28D1
:10015800F60BAA28000083120313861AB428B528C0
:100168009928CC2808150630F6003030F500F50B34
:10017800BB28F60BBB2800008312031308112F308D
:10018800F600BF30F500F50BC728F60BC728CC28BA
:1001980083120313061BD128D228B6283B280A123B
:1001A8008A110C28831203130C1FDB28DC2847292B
:1001B8001F0CF000700C0F39003A031DE428E528E5
:1001C8000D291E08F0000310700C3E3E95001E0815
:1001D8000139F000F00EF00D17087006DF397006CF
:1001E8009700831603131E08F00007300310F00C65
:1001F800FF3E031DFA287008F100F10E8312031365
:1002080017087106EF39710697001F08C3390438BB
:100218009F001F0CF000700C0F39013A031D1529BF
:1002280016293E291E08F0000310700C3E3E9B0064
:100238001E080139F000F00EF00D1D087006DF39B8
:1002480070069D00831603131E08F0000730031084
:10025800F00CFF3E031D2B297008F100F10E8312EC
:1002680003131D087106EF3971069D001F08C33975
:1002780004389F001F082130F000F00B4129831239
:1002880003130C139F1473088A00720E8300FE0E6A
:100298007E0E0900831603170814881408158901AF
:1002A800831603130514851405150130860087107D
:1002B80007118801890183120313850186018701CB
:1002C80088018901831603130F178F160F160F1451
:1002D8009F139F121F12831203131F083F394038C0
:1002E8009F00C3309F052130F400F40B7929831255
:1002F80003131F140330920412158C1884298529BE
:1003080081298C108316031307118710F930920086
:1003180007153F308312031397051708F0390C3877
:1003280097000F309500CF30970583160313871475
:10033800831203131D08F0390C389D000F309B0001
:100348009D128B170B17831603138C148312031338
:100358008C10831603130C17831203130C13080055
:04400E00D430FF3F6C
:00000001FF
