:020000040000FA
:060000000A128A110C280F
:10000800FE00030EF7000A08F8000A128A11AA2D4A
:100018000A128A110F28F001F101F201F301F4012B
:10002800F501F60183120313A001A101A201A301A6
:10003800A401A501A601A701A801A901AA01AB0174
:1000480083010A128A11A029FF0000308A007F0864
:1000580082072D28F401F50174037504031D352862
:1000680036286528F201F3017308803AFF008030D2
:100078007F02031D412810307202031C44284528C2
:10008800462865288312031308140330FA009730B2
:10009800F900F90B4D28FA0B4D2852288312031347
:1000A80008103230FA005830F900F90B5928FA0BC9
:1000B800592800000130F2070318F30A0030F3074B
:1000C8003828023074067504031D6B286C289B2899
:1000D800F001F1017108803AFF0080307F02031DB2
:1000E800772810307002031C7A287B287C289B28EC
:1000F8008312031308140430FA00E430F900F90BF2
:100108008328FA0B83280000831203130810313068
:10011800FA000B30F900F90B8F28FA0B8F28942876
:100128000130F0070318F10A0030F1076E28033098
:1001380074067504031DA128A228D5288312031369
:10014800A801A9012908803AFF0080307F02031D19
:10015800AF2815302802031CB228B328B428D528A4
:100168008312031388140330FA009730F900F90B4F
:10017800BB28FA0BBB28C02883120313881032301F
:10018800FA005830F900F90BC728FA0BC728000005
:10019800013083120313A8070318A90A0030A9071E
:1001A800A628043074067504031DDB28DC280F29F3
:1001B80083120313A601A7012708803AFF008030A5
:1001C8007F02031DE92815302602031CEC28ED28C0
:1001D800EE280F298312031388140430FA00E43040
:1001E800F900F90BF528FA0BF52800008312031320
:1001F80088103130FA000B30F900F90B0129FA0B9D
:1002080001290629013083120313A6070318A70A38
:100218000030A707E028053074067504031D15296A
:100228001629492983120313A401A5012508803A38
:10023800FF0080307F02031D232915302402031C90
:100248002629272928294929831203130815033049
:10025800FA009730F900F90B2F29FA0B2F293429C6
:100268008312031308113230FA005830F900F90BE1
:100278003B29FA0B3B290000013083120313A40722
:100288000318A50A0030A5071A2906307406750454
:10029800031D4F295029832983120313A201A301A7
:1002A8002308803AFF0080307F02031D5D29153046
:1002B8002202031C602961296229832983120313FE
:1002C80008150430FA00E430F900F90B6929FA0B33
:1002D800692900008312031308113130FA000B302A
:1002E800F900F90B7529FA0B75297A29013083125F
:1002F8000313A2070318A30A0030A30754290730E1
:1003080074067504031D89298A298C29F401F501CD
:100318000130F4070318F50A0030F5077508803A2C
:10032800FF0080307F02031D9B2908307402031CE4
:100338009E299F29302808000A128A11B3230A121D
:100348008A110030F900FA0061300A128A118025FA
:100358000A128A110130F9000030FA006E300A12D0
:100368008A1180250A128A110230F9000030FA0039
:1003780064300A128A1180250A128A110330F900A2
:100388000030FA0079300A128A1180250A128A117F
:100398000A128A112E200A128A11831203139F1837
:1003A800D629D729292A1F0CAC002C0C0F39003A62
:1003B800031DDF29E029F0291E089500413083122A
:1003C8000313AC00AC0BE629E929831203131F08B9
:1003D800C33904389F001F2A1F0CAC002C0C0F399E
:1003E800013A031DF829F929092A1E089B00413002
:1003F80083120313AC00AC0BFF29022A83120313E8
:100408001F08C33908389F001F2A1F0CAC002C0C8A
:100418000F39023A031D112A122A1F2A1E088900C1
:10042800413083120313AC00AC0B182A1B2AC330CB
:10043800831203139F05413083120313AC00AC0BE6
:10044800232A262A831203139F1402300A128A11C0
:1004580061250A128A1169300A128A1161250A1265
:100468008A1121300A128A1161250A128A118030F4
:100478000A128A1161250A128A1139300A128A1160
:1004880061250A128A1197300A128A1161250A1207
:100498008A1151300A128A1161250A128A11582AC2
:1004A800D330AC002C08F600831203138C1E5D2A8F
:1004B8005E2A542AB22A0A128A1101250A128A11BE
:1004C80030300A128A119D250A128A11CC290A1283
:1004D8008A1131250A128A1135300A128A119D258E
:1004E8000A128A11CC290A128A1199240A128A112D
:1004F80030300A128A119D250A128A11CC290A1253
:100508008A11CD240A128A1135300A128A119D25C2
:100518000A128A11CC290A128A1131240A128A1164
:1005280030300A128A119D250A128A11CC290A1222
:100538008A1165240A128A1135300A128A119D25FA
:100548000A128A11CC290A30F9000030FA001E0874
:100558000A128A1180250A128A11CC297608AC0061
:10056800AD012D08003A0319BA2ACC292C08313AD2
:1005780003195F2A033A03196B2A013A0319772AE8
:10058800073A0319832A013A03198F2A033A0319F0
:100598009B2A013A0319A72ACC290A128A110C2886
:1006000003308A000408840A820700340A340D3457
:1006100020345134753465342034613463346334A8
:1006200069346F346E342034643465347334653423
:100630006134203465346A34653463347534743419
:10064000613472343F3420340D3400342034323479
:10065000293420344D346F34763465347234203488
:100660006134203434343534203473346534723496
:1006700076346F34313420340D3400342034333444
:10068000293420344D346F34763465347234203458
:100690006134203434343534203473346534723466
:1006A00076346F34323420340D3400342034333413
:1006B000293420344D346F34763465347234203428
:1006C0006134203434343534203473346534723436
:1006D00076346F34333420340D34003420343134E4
:1006E000293420344D346F347634653472342034F8
:1006F00061342034303420347334653472347634C9
:100700006F34313420340D34003420343334293400
:1007100020344D346F34763465347234203461348F
:1007200020343034203473346534723476346F348A
:10073000323420340D34003420343334293420341E
:100740004D346F347634653472342034613420345F
:100750003034203473346534723476346F34333447
:1007600020340D3400348316031708148814081538
:100770008316031305148514051506148710071135
:10078000081088100811890183120313850186015E
:10079000870188018901831603130F178F160F161F
:1007A0000F14161496148117151495149F131F1205
:1007B0009F12831203131F083F3980389F00C330F4
:1007C0009F052130F900F90BE32B831203131F144B
:1007D000F93083160313920007153F308312031379
:1007E00097051708F0390C3897000F309500CF3077
:1007F0009705831603138714831203131D08F0391A
:100800000C389D000F309B009D128C100330920419
:1008100012158C1083160313071187101812181560
:100820008316031787150C308316031399009A015A
:1008300083120313981718131816831603139816A8
:100840008B170B178B150B100C17831203130C133C
:100850004230F900F90B2A2C0000831203139F1475
:10086000080083120313A401A5012508803AFF00A4
:1008700080307F02031D3E2C10302402031C412CCB
:10088000422C432C642C8312031308150330FA0006
:100890009730F900F90B4A2CFA0B4A2C4F2C831293
:1008A000031308113230FA005830F900F90B562CB6
:1008B000FA0B562C0000013083120313A40703180F
:1008C000A50A0030A507352C080083120313A201E6
:1008D000A3012308803AFF0080307F02031D722CA1
:1008E00010302202031C752C762C772C982C831246
:1008F000031308150430FA00E430F900F90B7E2CDC
:10090000FA0B7E2C00008312031308113130FA0019
:100910000B30F900F90B8A2CFA0B8A2C8F2C013042
:1009200083120313A2070318A30A0030A307692C3C
:10093000080083120313A801A9012908803AFF00C7
:1009400080307F02031DA62C10302802031CA92C26
:10095000AA2CAB2CCC2C8312031388140330FA007E
:100960009730F900F90BB22CFA0BB22CB72C83128A
:10097000031388103230FA005830F900F90BBE2CFE
:10098000FA0BBE2C0000013083120313A8070318D2
:10099000A90A0030A9079D2C080083120313A601A1
:1009A000A7012708803AFF0080307F02031DDA2C60
:1009B00010302602031CDD2CDE2CDF2C002D8312D0
:1009C000031388140430FA00E430F900F90BE62C24
:1009D000FA0BE62C00008312031388103130FA0062
:1009E0000B30F900F90BF22CFA0BF22CF72C01303A
:1009F00083120313A6070318A70A0030A707D12CF8
:100A00000800F201F3017308803AFF0080307F0292
:100A1000031D0C2D10307202031C0F2D102D112DF3
:100A2000302D8312031308140330FA009730F900B5
:100A3000F90B182DFA0B182D1D2D83120313081016
:100A40003230FA005830F900F90B242DFA0B242D1E
:100A500000000130F2070318F30A0030F307032DFA
:100A60000800F001F1017108803AFF0080307F0238
:100A7000031D3C2D10307002031C3F2D402D412DD5
:100A8000602D8312031308140430FA00E430F900D7
:100A9000F90B482DFA0B482D0000831203130810A0
:100AA0003130FA000B30F900F90B542DFA0B542DAC
:100AB000592D0130F0070318F10A0030F107332DEA
:100AC0000800FB00732D7B0884000A128A110023A2
:100AD0000A128A110A128A119D250A128A110130FE
:100AE000FA007A08FB077B0884000A128A110023A7
:100AF0000A128A11003A031D7E2D7F2D632D0800F6
:100B0000FB007908831203178D007B088C00831685
:100B100003178C130C158B1355308D00AA308D00E4
:100B20008C148B17831203130D1E972D982D922D65
:100B30000D12831603170C110800F900A32D790874
:100B400083120313990083160313981CA82DA92D53
:100B50009F2D080078088A00770E8300FE0E7E0E17
:020B600009008A
:04400E00D430FF3F6C
:00000001FF
