:020000040000FA
:060000000A128A110C280F
:10000800FE00030EF7000A08F8000A128A112128D8
:100018000A128A110F28F001F101F201F301F4012B
:1000280083132030840030300A128A11D2220A1237
:100038008A1183010A128A112F29831203130C1FB4
:10004800262827289E281F0CF500750C0F39003A22
:10005800031D2F28302858281E08F5000310750C9A
:100068003E3E95001E080139F500F50EF50D1708FE
:100078007506DF3975069700831603131E08F50009
:1000880007300310F50CFF3E031D45287508F600E0
:10009800F60E8312031317087606EF3976069700D3
:1000A8001F08C33904389F001F0CF500750C0F3961
:1000B800013A031D6028612889281E08F5000310ED
:1000C800750C3E3E9B001E080139F500F50EF50D36
:1000D8001D087506DF3975069D00831603131E0873
:1000E800F50007300310F50CFF3E031D7628750850
:1000F800F600F60E831203131D087606EF3976060E
:100108009D001F08C33908389F001F0CF500750CA7
:100118000F39023A031D9128922896281E08890053
:10012800C3309F052130F500F50B9828831203137F
:100138000C139F140B1CA128A228BA280618A5285E
:10014800A628AA280130F0000030F1008618AD2852
:10015800AE28B2280230F0000030F1000619B528A8
:10016800B628BA280330F0000030F10078088A0079
:10017800770E8300FE0E7E0E0900831603170814FF
:100188008814081583160313051485140515061419
:1001980087100711081088100811890183120313AA
:1001A80085018601870188018901831603130F17CA
:1001B8008F160F160F14161496141615811715148A
:1001C800951415159F131F129F12831203131F08EE
:1001D8003F3980389F00C3309F052130F900F90B63
:1001E800F328831203131F14F930831603139200A4
:1001F80007153F308312031397051708F0390C3899
:1002080097000F309500CF30970583160313871496
:10021800831203131D08F0390C389D000F309B0022
:100228009D128C100330920412158C108316031340
:10023800071187108B170B178B150B100C178312D0
:1002480003130C134230F900F90B2829000083121C
:1002580003139F1408000A128A11C1200A128A1176
:1002680070037104031D39293A2952290A128A1187
:1002780068220A128A11063083120313B40013305D
:10028800B300AD30B200B20B4729B30B4729B40B0A
:1002980047290A128A119D220A128A110230700611
:1002A8007104031D5829592971290A128A11FE213E
:1002B8000A128A11063083120313B4001330B300F4
:1002C800AD30B200B20B6629B30B6629B40B6629B0
:1002D8000A128A1133220A128A1103307006710435
:1002E800031D7729782934290A128A1194210A12C0
:1002F8008A11063083120313B4001330B300AD30F3
:10030800B200B20B8529B30B8529B40B85290A12D3
:100318008A11C9210A128A1134290A128A110C2851
:1003280083120313A401A5018312031308150330D4
:1003380083120313B1009730B000B00BA129B10BA1
:10034800A129831203130811323083120313B10059
:100358005730B000B00BAE29B10BAE29B32901302C
:1003680083120313A4070318A50A0030A50725085C
:10037800803AFF0080307F02031DC4291030240218
:10038800031CC729C8299829080083120313A2014E
:10039800A301831203130815043083120313B10059
:1003A800E330B000B00BD629B10BD629DB29831274
:1003B80003130811313083120313B1000B30B0005E
:1003C800B00BE429B10BE429013083120313A2070F
:1003D8000318A30A0030A3072308803AFF008030DF
:1003E8007F02031DF92910302202031CFC29FD2974
:1003F800CD29080083120313A801A901831203134E
:100408008814033083120313B1009730B000B00B87
:100418000B2AB10B0B2A8312031388103230831274
:100428000313B1005730B000B00B182AB10B182ACB
:100438001D2A013083120313A8070318A90A0030E4
:10044800A9072908803AFF0080307F02031D2E2A61
:1004580010302802031C312A322A022A080083128B
:100468000313A601A701831203138814043083120F
:100478000313B100E330B000B00B402AB10B402A9F
:10048800452A831203138810313083120313B100F5
:100498000B30B000B00B4E2AB10B4E2A013083123C
:1004A8000313A6070318A70A0030A7072708803AEE
:1004B800FF0080307F02031D632A10302602031CD0
:1004C800662A672A372A080083120313AC01AD0194
:1004D800831203130814033083120313B1009730F7
:1004E800B000B00B752AB10B752A831203130810DC
:1004F800323083120313B1005730B000B00B822A98
:10050800B10B822A872A013083120313AC07031820
:10051800AD0A0030AD072D08803AFF0080307F0219
:10052800031D982A10302C02031C9B2A9C2A6C2A33
:10053800080083120313AA01AB01831203130814E2
:10054800043083120313B100E330B000B00BAA2AC1
:10055800B10BAA2AAF2A8312031308103130831271
:100568000313B1000B30B000B00BB82AB10BB82A96
:10057800013083120313AA070318AB0A0030AB0734
:100588002B08803AFF0080307F02031DCD2A1030EF
:100598002A02031CD02AD12AA12A0800640080015B
:1005A800840A0406031900340406D32A02308A0098
:0A05B8000408840A820700340A34A4
:04400E00D430FF3F6C
:00000001FF
