:020000040000FA
:060000000A128A110C280F
:10000800FE00030EF9000A08FA000A128A11FA28FB
:100018000A128A110F28F001F101F201F301F4012B
:10002800F501F601F701F80183120313A001A101FC
:10003800A201A301A401A501A601A701A801A90184
:10004800AA01AB0183010A128A11BF28831603177C
:100058000814881408158316031305148514051548
:1000680001308600871007110810881008118901CF
:10007800831203138501860187018801890183168C
:1000880003130F178F160F160F1481120112811107
:10009800011581140114593083120313810090163D
:1000A80010169015101590101014EC308F00783041
:1000B8008E008316031381171514951415159F13B5
:1000C8001F129F12831203131F083F3980389F00A5
:1000D800C3309F054230FB00FB0B702800008312E1
:1000E80003131F14F93083160313920007153F30CA
:1000F8008312031397051708F0390C3897000F304F
:100108009500CF30970583160313871483120313C2
:100118001D08F0390C389D000F309B009D128C1083
:100128000330920412158C108316031307118710DD
:1001380018121815831603178715CF308316031363
:1001480099009A0183120313981718131816831627
:10015800031398168B170B178B120B110C138312A2
:1001680003130C134230FB00FB0BB828000083126A
:1001780003139F1408000A128A112A200A128A11EE
:100188000B15831203130618CA28CB28C428F001BC
:10019800F1018312031308140630FD003030FC000F
:1001A800FC0BD428FD0BD428000083120313081479
:1001B8000130F0070318F10A0030F1077108803A9E
:1001C800FF0080307F02031DEB2814307002031CEF
:1001D800EE28EF28CD28C4280A128A110C280030EE
:1001E8008A000408840A820700340A347A088A00DC
:0A01F800790E8300FE0E7E0E090052
:04400E00D430FF3F6C
:00000001FF
