:020000040000FA
:060000000A128A110C280F
:10000800FE00030EFA000A08FB000A128A11BF2933
:100018000A128A110F28F001F101F201F301F4012B
:10002800F501F601F701F801F90183120313A001A4
:10003800A101A201A30183010A128A11B129F801C1
:10004800F90178037904031D2A282B285B28F60177
:10005800F701831203130814033083120313A50056
:100068009730A400A40B3628A50B36288312031357
:100078000810323083120313A5005730A400A40BD4
:100088004328A50B432848280130F6070318F70A28
:100098000030F7077708803AFF0080307F02031DA1
:1000A800572815307602031C5A285B282D28023061
:1000B80078067904031D612862289228F401F50165
:1000C800831203130814043083120313A500E330CA
:1000D800A400A40B6D28A50B6D28722883120313A6
:1000E8000810313083120313A5000B30A400A40BB1
:1000F8007B28A50B7B280130F4070318F50A00308C
:10010800F5077508803AFF0080307F02031D8E28AE
:1001180015307402031C912892286428033078064D
:100128007904031D98289928C928F201F30183123C
:1001380003138814033083120313A5009730A40017
:10014800A40BA428A50BA42883120313881032300B
:1001580083120313A5005730A400A40BB128A50BE4
:10016800B128B6280130F2070318F30A0030F30764
:100178007308803AFF0080307F02031DC5281530C0
:100188007202031CC828C9289B2804307806790401
:10019800031DCF28D0280029F001F1018312031391
:1001A8008814043083120313A500E330A400A40BC1
:1001B800DB28A50BDB28E0288312031388103130D5
:1001C80083120313A5000B30A400A40BE928A50B88
:1001D800E9280130F0070318F10A0030F107710827
:1001E800803AFF0080307F02031DFC281530700222
:1001F800031CFF280029D228053078067904031D3E
:10020800062907293B2983120313A201A30183129C
:1002180003130815033083120313A5009730A400B5
:10022800A40B1429A50B14298312031308113230C7
:1002380083120313A5005730A400A40B2129A50B92
:1002480021292629013083120313A2070318A30AC0
:100258000030A3072308803AFF0080307F02031D87
:10026800372915302202031C3A293B290B2906306D
:1002780078067904031D412942297629831203133C
:10028800A001A1018312031308150430831203137C
:10029800A500E330A400A40B4F29A50B4F2954292E
:1002A800831203130811313083120313A5000B3096
:1002B800A400A40B5D29A50B5D290130831203134B
:1002C800A0070318A10A0030A1072108803AFF00FF
:1002D80080307F02031D722915302002031C752906
:1002E80076294629073078067904031D7C297D295B
:1002F8007F29F801F9010130F8070318F90A0030DD
:10030800F9077908803AFF0080307F02031D8E29A3
:1003180008307802031C91299229252808008316A1
:100328000317081488140815831603130514851475
:100338000515061587100711081088100811831273
:1003480003138501860187018801831603130F179C
:100358008F160F160F148B1708000A128A11932193
:100368000A128A110A128A1123200A128A11B6293E
:100378000A128A110C287B088A007A0E8300FE0E66
:040388007E0E0900DC
:04400E00D430FF3F6C
:00000001FF
