:020000040000FA
:060000000A128A110C280F
:10000800FE00030EF8000A08F9000A128A11AE2948
:100018000A128A110F28F001F101F201F301F4012B
:10002800F50183120313A001A101A201A301A401F8
:10003800A501A601A701A80183010A128A11AE2A07
:10004800FF0000308A007F0882072928F401F501A3
:1000580074037504031D312832286428F201F30162
:100068007308803AFF0080307F02031D3D2810305E
:100078007202031C40284128422864288312031373
:100088000814033083120313AA009730A900A90BA0
:100098004B28AA0B4B288312031308103230831203
:1000A8000313AA005730A900A90B5828AA0B5828EF
:1000B8005D280130F2070318F30A0030F3073428EB
:1000C800023074067504031D6A286B289D28F00108
:1000D800F1017108803AFF0080307F02031D762805
:1000E80010307002031C79287A287B289D288312F7
:1000F80003130814043083120313AA00E330A90081
:10010800A90B8428AA0B84288928831203130810B2
:10011800313083120313AA000B30A900A90B9228CF
:10012800AA0B92280130F0070318F10A0030F107F2
:100138006D28033074067504031DA328A428DA2843
:1001480083120313A601A7012708803AFF00803015
:100158007F02031DB12815302602031CB428B528D8
:10016800B628DA2883120313881403308312031382
:10017800AA009730A900A90BBF28AA0BBF28831291
:1001880003138810323083120313AA005730A900D2
:10019800A90BCC28AA0BCC28D12801308312031331
:1001A800A6070318A70A0030A707A8280430740672
:1001B8007504031DE028E128172983120313A401FD
:1001C800A5012508803AFF0080307F02031DEE2834
:1001D80015302402031CF128F228F328172983126A
:1001E80003138814043083120313AA00E330A90010
:1001F800A90BFC28AA0BFC280129831203138810D9
:10020800313083120313AA000B30A900A90B0A2965
:10021800AA0B0A29013083120313A4070318A50A9D
:100228000030A507E528053074067504031D1D294F
:100238001E29542983120313A201A3012308803A1B
:10024800FF0080307F02031D2B2915302202031C7A
:100258002E292F2930295429831203130815033016
:1002680083120313AA009730A900A90B3929AA0BF6
:100278003929831203130811323083120313AA0099
:100288005730A900A90B4629AA0B46294B2901304A
:1002980083120313A2070318A30A0030A307222915
:1002A800063074067504031D5A295B2991298312A7
:1002B8000313A001A1012108803AFF0080307F02CA
:1002C800031D682915302002031C6B296C296D2930
:1002D8009129831203130815043083120313AA000B
:1002E800E330A900A90B7629AA0B76297B2983126A
:1002F80003130811313083120313AA000B30A9002D
:10030800A90B8429AA0B8429013083120313A0079F
:100318000318A10A0030A1075F2907307406750485
:10032800031D972998299A29F401F5010130F4074A
:100338000318F50A0030F5077508803AFF00803089
:100348007F02031DA92908307402031CAC29AD29BA
:100358002C280800831203130C1FB329B4292B2A55
:100368001F0CF600760C0F39003A031DBC29BD2975
:10037800E5291E08F6000310760C3E3E95001E087F
:100388000139F600F60EF60D17087606DF397606FF
:100398009700831603131E08F60007300310F60CA7
:1003A800FF3E031DD2297608F700F70E83120313C8
:1003B80017087706EF39770697001F08C3390438FE
:1003C8009F001F0CF600760C0F39013A031DED292A
:1003D800EE29162A1E08F6000310760C3E3E9B00F6
:1003E8001E080139F600F60EF60D1D087606DF39EF
:1003F80076069D00831603131E08F60007300310C7
:10040800F60CFF3E031D032A7608F700F70E831249
:1004180003131D087706EF3977069D001F08C339B7
:1004280008389F001F0CF600760C0F39023A031D9E
:100438001E2A1F2A232A1E088900C3309F0521303F
:10044800F600F60B252A831203130C139F14790860
:100458008A00780E8300FE0E7E0E090083160317AD
:100468000814881408158316031305148514051534
:1004780006148710071108108810081189018312C3
:1004880003138501860187018801890183160313F7
:100498000F178F160F160F149F131F129F12831218
:1004A80003131F083F3980389F00C3309F05203051
:1004B80083120313A900A90B5F2A000083120313F8
:1004C8001F14F93083160313920007153F30831267
:1004D800031397051708F0390C3897000F3095006B
:1004E800CF309705831603138714831203131D084F
:1004F800F0390C389D000F309B009D128C10033092
:10050800920412158C108316031307118710181202
:100518001815831603178715CF3083160313990010
:100528009A018312031398171813181683160313C6
:1005380098168B170B170C17831203130C134130E3
:1005480083120313A900A90BA72AAA2A831203134B
:100558009F1408000A128A1132220A128A11D7300F
:1005680083120313AB002B08A800DE2A0A128A1193
:10057800DF230A128A11FA2A0A128A1112240A128D
:100588008A11FA2A0A128A1171230A128A11FA2A7E
:100598000A128A11A8230A128A11FA2A0A128A113F
:1005A80003230A128A11FA2A0A128A113A230A1212
:1005B8008A11FA2A2808AB00AC012C08003A031962
:1005C800E62AFA2A2B08313A0319BA2A033A0319F8
:1005D800C02A013A0319C62A073A0319CC2A013A54
:1005E8000319D22A033A0319D82AFA2A0A128A11B5
:1005F8002A200A128A11B32A0A128A110C28831295
:100608000313A201A3012308803AFF0080307F0270
:10061800031D102B10302202031C132B142B152B37
:10062800392B831203130815033083120313AA000E
:100638009730A900A90B1E2BAA0B1E2B831203139C
:100648000811323083120313AA005730A900A90BEE
:100658002B2BAA0B2B2B302B013083120313A20751
:100668000318A30A0030A307072B080083120313FB
:10067800A001A1012108803AFF0080307F02031DFC
:10068800472B10302002031C4A2B4B2B4C2B702B72
:10069800831203130815043083120313AA00E330EE
:1006A800A900A90B552BAA0B552B5A2B8312031300
:1006B8000811313083120313AA000B30A900A90BCB
:1006C800632BAA0B632B013083120313A0070318B3
:1006D800A10A0030A1073E2B080083120313A601CC
:1006E800A7012708803AFF0080307F02031D7E2B78
:1006F80010302602031C812B822B832BA72B8312FD
:1007080003138814033083120313AA009730A90037
:10071800A90B8C2BAA0B8C2B831203138810323055
:1007280083120313AA005730A900A90B992BAA0B0F
:10073800992B9E2B013083120313A6070318A70ACF
:100748000030A707752B080083120313A401A50125
:100758002508803AFF0080307F02031DB52B10303A
:100768002402031CB82BB92BBA2BDE2B83120313DC
:100778008814043083120313AA00E330A900A90BDC
:10078800C32BAA0BC32BC82B831203138810313039
:1007980083120313AA000B30A900A90BD12BAA0BB3
:1007A800D12B013083120313A4070318A50A0030C4
:1007B800A507AC2B0800F201F3017308803AFF008B
:1007C80080307F02031DEA2B10307202031CED2BD0
:1007D800EE2BEF2B112C8312031308140330831212
:1007E8000313AA009730A900A90BF82BAA0BF82B22
:1007F800831203130810323083120313AA005730F0
:10080800A900A90B052CAA0B052C0A2C0130F2070C
:100818000318F30A0030F307E12B0800F001F10197
:100828007108803AFF0080307F02031D1D2C1030B4
:100838007002031C202C212C222C442C831203131D
:100848000814043083120313AA00E330A900A90B8B
:100858002B2CAA0B2B2C302C8312031308103130AD
:1008680083120313AA000B30A900A90B392CAA0B79
:10087800392C0130F0070318F10A0030F107142C65
:02088800080066
:04400E00D430FF3F6C
:00000001FF
