:020000040000FA
:060000000A128A110C280F
:10000800FE00030EFA000A08FB000A128A11B6293C
:100018000A128A110F28F001F101F201F301F4012B
:10002800F501F601F701F801F90183120313A001A4
:10003800A101A201A30183010A128A11A82983122E
:100048000313061D282829282F280130F80703182C
:10005800F90A0030F90778037904031D3428352894
:100068006528F601F701831203130814033083127D
:100078000313A5009730A400A40B4028A50B402823
:10008800831203130810323083120313A50057306C
:10009800A400A40B4D28A50B4D2852280130F607C3
:1000A8000318F70A0030F7077708803AFF00803016
:1000B8007F02031D612815307602031C6428652819
:1000C8003728023078067904031D6B286C289C2891
:1000D800F401F50183120313081404308312031387
:1000E800A500E330A400A40B7728A50B77287C286B
:1000F800831203130810313083120313A5000B3049
:10010800A400A40B8528A50B85280130F407031843
:10011800F50A0030F5077508803AFF0080307F0245
:10012800031D982815307402031C9B289C286E28F0
:10013800033078067904031DA228A328D328F201E6
:10014800F301831203138814033083120313A500E9
:100158009730A400A40BAE28A50BAE288312031376
:100168008810323083120313A5005730A400A40B63
:10017800BB28A50BBB28C0280130F2070318F30AD7
:100188000030F3077308803AFF0080307F02031DB8
:10019800CF2815307202031CD228D328A528043092
:1001A80078067904031DD928DA280A29F001F10113
:1001B800831203138814043083120313A500E33059
:1001C800A400A40BE528A50BE528EA28831203134D
:1001D8008810313083120313A5000B30A400A40B40
:1001E800F328A50BF3280130F0070318F10A0030B3
:1001F800F1077108803AFF0080307F02031D06294D
:1002080015307002031C09290A29DC2805307806F4
:100218007904031D10291129452983120313A2010A
:10022800A301831203130815033083120313A500D7
:100238009730A400A40B1E29A50B1E2983120313B3
:100248000811323083120313A5005730A400A40B01
:100258002B29A50B2B293029013083120313A20760
:100268000318A30A0030A3072308803AFF00803050
:100278007F02031D412915302202031C4429452908
:100288001529063078067904031D4B294C29802945
:1002980083120313A001A10183120313081504306C
:1002A80083120313A500E330A400A40B5929A50B5E
:1002B80059295E298312031308113130831203135D
:1002C800A5000B30A400A40B6729A50B67290130F2
:1002D80083120313A0070318A10A0030A1072108FD
:1002E800803AFF0080307F02031D7C2915302002F0
:1002F800031C7F2980295029073078067904031DBB
:10030800862987298929F801F90108008316031726
:100318000814881408158316031305148514051585
:100328000615871007110810881008118312031387
:100338008501860187018801831603130F178F161D
:100348000F160F148B1708000A128A118A210A1235
:100358008A110A128A1123200A128A11AD290A1257
:100368008A110C287B088A007A0E8300FE0E7E0E06
:0203780009007A
:04400E00D430FF3F6C
:00000001FF
