:020000040000FA
:060000000A128A110C280F
:10000800FE00030EF9000A08FA000A128A11612A92
:100018000A128A110F28F001F101F201F301F4012B
:10002800F501F601F701F80183120313A001A101FC
:1000380083010A128A11BA28831603170814881430
:10004800081583160313051485140515FF3086005B
:1000580087100711081088100811890183120313EB
:1000680085018601870188018901831603130F170B
:100078008F160F160F1481120112811101158114A8
:10008800011459308312031381009016101690152D
:10009800101590101014EC308F0078308E008316F5
:1000A800031381171514951415159515151695161E
:1000B800151795179F131F129F12831203131F08FA
:1000C8003F3980389F00C3309F054230FB00FB0B4F
:1000D8006B280000831203131F14F93083160313CF
:1000E800920007153F308312031397051708F0395C
:1000F8000C3897000F309500CF30970583160313FF
:100108008714831203131D08F0390C389D000F3033
:100118009B009D128C100330920412158C108316CC
:10012800031307118710181218158316031787155C
:10013800CF308316031399009A018312031398177B
:10014800181318168316031398168B170B178B1290
:100158000B110C13831203130C134230FB00FB0B1F
:10016800B3280000831203139F1408000A128A118F
:1001780020200A128A11831203130618C428C528DE
:10018800CB280A128A112A220A128A11FD288618F7
:10019800CE28CF28D5280A128A11FA210A128A11E4
:1001A800FD280619D828D928DF280A128A11CA2159
:1001B8000A128A11FD288619E228E328E9280A127A
:1001C8008A119A210A128A11FD28061AEC28ED28AC
:1001D800F3280A128A116A210A128A11FD28861A3E
:1001E800F628F728FD280A128A113A210A128A11DC
:1001F800FD28831203139F1802290329BF281F0C07
:10020800FD007D0C0F39053A031D0B290C29132914
:100218001E0895001F08C33918389F002E291F0C87
:10022800FD007D0C0F39063A031D1B291C292329C3
:100238001E089B001F08C3391C389F002E291F0C5D
:10024800FD007D0C0F39073A031D2B292C292E2977
:100258001E0889004230FD00FD0B30290000831282
:1002680003139F14BF280A128A110C28F001F10108
:100278007108803AFF0080307F02031D452919303C
:100288007002031C482949294A2969298312031342
:1002980008150630FC003030FB00FB0B5129FC0B25
:1002A800512900008312031308112F30FC00BF30BE
:1002B800FB00FB0B5D29FC0B5D2962290130F0076F
:1002C8000318F10A0030F1073C290800F001F10198
:1002D8007108803AFF0080307F02031D75291930AC
:1002E8007002031C782979297A2999298312031322
:1002F80008150330FC009730FB00FB0B8129FC0B31
:10030800812986298312031308113230FC005830E2
:10031800FB00FB0B8D29FC0B8D2900000130F00739
:100328000318F10A0030F1076C290800F001F10107
:100338007108803AFF0080307F02031DA52919301B
:100348007002031CA829A929AA29C9298312031301
:1003580088140630FC003030FB00FB0BB129FC0B85
:10036800B12900008312031388102F30FC00BF301E
:10037800FB00FB0BBD29FC0BBD29C2290130F0078E
:100388000318F10A0030F1079C290800F001F10177
:100398007108803AFF0080307F02031DD52919308B
:1003A8007002031CD829D929DA29F92983120313E1
:1003B80088140330FC009730FB00FB0BE129FC0B91
:1003C800E129E6298312031388103230FC005830E3
:1003D800FB00FB0BED29FC0BED2900000130F007B9
:1003E8000318F10A0030F107CC290800F001F101E7
:1003F8007108803AFF0080307F02031D052A1930FA
:100408007002031C082A092A0A2A292A83120313BC
:1004180008140630FC003030FB00FB0B112AFC0BE3
:10042800112A00008312031308102F30FC00BF307C
:10043800FB00FB0B1D2AFC0B1D2A222A0130F007AA
:100448000318F10A0030F107FC290800F001F10156
:100458007108803AFF0080307F02031D352A193069
:100468007002031C382A392A3A2A592A831203139C
:1004780008140330FC009730FB00FB0B412AFC0BEF
:10048800412A462A8312031308103230FC005830E0
:10049800FB00FB0B4D2AFC0B4D2A00000130F00736
:1004A8000318F10A0030F1072C2A080002308A00EC
:1004B8000408840A820700340A347A088A00790E0C
:0804C8008300FE0E7E0E090008
:04400E00D430FF3F6C
:00000001FF
