:020000040000FA
:060000000A128A110C280F
:10000800FE00030EF9000A08FA000A128A11282ACB
:100018000A128A110F28F001F101F201F301F4012B
:10002800F501F601F701F80183120313A001A101FC
:1000380083010A128A11BA28831603170814881430
:100048000815831603130514851405150130860059
:1000580087100711081088100811890183120313EB
:1000680085018601870188018901831603130F170B
:100078008F160F160F1481120112811101158114A8
:10008800011459308312031381009016101690152D
:10009800101590101014EC308F0078308E008316F5
:1000A800031381171514951415159515151695161E
:1000B800151795179F131F129F12831203131F08FA
:1000C8003F3980389F00C3309F054230FB00FB0B4F
:1000D8006B280000831203131F14F93083160313CF
:1000E800920007153F308312031397051708F0395C
:1000F8000C3897000F309500CF30970583160313FF
:100108008714831203131D08F0390C389D000F3033
:100118009B009D128C100330920412158C108316CC
:10012800031307118710181218158316031787155C
:10013800CF308316031399009A018312031398177B
:10014800181318168316031398168B170B178B1290
:100158000B110C13831203130C134230FB00FB0B1F
:10016800B3280000831203139F1408000A128A118F
:1001780020200A128A11831203130618C428C528DE
:10018800CB280A128A11F1210A128A11BF2886186F
:10019800CE28CF28D5280A128A11C1210A128A111D
:1001A800BF280619D828D928DF280A128A119121D0
:1001B8000A128A11BF288619E228E328E9280A12B8
:1001C8008A1161210A128A11BF28061AEC28ED2823
:1001D800F3280A128A1131210A128A11BF28861AB5
:1001E800F628F728FD280A128A1101210A128A1115
:1001F800BF28BF280A128A110C28F001F1017108E2
:10020800803AFF0080307F02031D0C2919307002EC
:10021800031C0F29102911293029831203130815EB
:100228000630FC003030FB00FB0B1829FC0B1829AA
:1002380000008312031308112F30FC00BF30FB00AD
:10024800FB0B2429FC0B242929290130F00703186A
:10025800F10A0030F10703290800F001F1017108E3
:10026800803AFF0080307F02031D3C29193070025C
:10027800031C3F29402941296029831203130815CB
:100288000330FC009730FB00FB0B4829FC0B482986
:100298004D298312031308113230FC005830FB003B
:1002A800FB0B5429FC0B542900000130F0070318FC
:1002B800F10A0030F10733290800F001F101710853
:1002C800803AFF0080307F02031D6C2919307002CC
:1002D800031C6F297029712990298312031388142C
:1002E8000630FC003030FB00FB0B7829FC0B78292A
:1002F80000008312031388102F30FC00BF30FB006E
:10030800FB0B8429FC0B842989290130F007031889
:10031800F10A0030F10763290800F001F1017108C2
:10032800803AFF0080307F02031D9C29193070023B
:10033800031C9F29A029A129C0298312031388140B
:100348000330FC009730FB00FB0BA829FC0BA82905
:10035800AD298312031388103230FC005830FB009B
:10036800FB0BB429FC0BB42900000130F00703187B
:10037800F10A0030F10793290800F001F101710832
:10038800803AFF0080307F02031DCC2919307002AB
:10039800031CCF29D029D129F0298312031308146B
:1003A8000630FC003030FB00FB0BD829FC0BD829A9
:1003B80000008312031308102F30FC00BF30FB002D
:1003C800FB0BE429FC0BE429E9290130F0070318A9
:1003D800F10A0030F107C3290800F001F1017108A2
:1003E800803AFF0080307F02031DFC29193070021B
:1003F800031CFF29002A012A202A83120313081448
:100408000330FC009730FB00FB0B082AFC0B082A82
:100418000D2A8312031308103230FC005830FB00F9
:10042800FB0B142AFC0B142A00000130F0070318F8
:10043800F10A0030F107F329080002308A000408A5
:10044800840A820700340A347A088A00790E830005
:06045800FE0E7E0E0900FD
:04400E00D430FF3F6C
:00000001FF
