:020000040000FA
:060000000A128A110C280F
:10000800FE00030EF7000A08F8000A128A11DC281D
:100018000A128A110F28F001F101F201F301F4012B
:1000280083120313A001A101A201A301A401A50148
:10003800A601A701A801A90183010A128A11602952
:10004800FF0000308A007F088207292800308A00D4
:100058000408840A820700340D342034513475347E
:100068006534203461346334633469346F346E34F6
:100078002034643465347334653461342034653431
:100088006A346534633475347434613472343F349B
:1000980020340D34003420343234293420344D34A3
:1000A8006F34763465347234203461342034343417
:1000B8003534203473346534723476346F343134E3
:1000C80020340D34003420343334293420344D3472
:1000D8006F347634653472342034613420343434E7
:1000E8003534203473346534723476346F343234B2
:1000F80020340D34003420343334293420344D3442
:100108006F347634653472342034613420343434B6
:100118003534203473346534723476346F34333480
:1001280020340D34003420343134293420344D3413
:100138006F3476346534723420346134203430348A
:10014800203473346534723476346F343134203467
:100158000D34003420343334293420344D346F3492
:1001680076346534723420346134203430342034A9
:1001780073346534723476346F34323420340D3449
:10018800003420343334293420344D346F347634F9
:10019800653472342034613420343034203473347C
:1001A8006534723476346F34333420340D3400348B
:1001B800831203130C1FE128E22859291F0CF500AC
:1001C800750C0F39003A031DEA28EB2813291E087D
:1001D800F5000310750C3E3E95001E080139F50028
:1001E800F50EF50D17087506DF39750697008316A5
:1001F80003131E08F50007300310F50CFF3E031D1E
:1002080000297508F600F60E831203131708760600
:10021800EF39760697001F08C33904389F001F0C72
:10022800F500750C0F39013A031D1B291C294429B7
:100238001E08F5000310750C3E3E9B001E08013990
:10024800F500F50EF50D1D087506DF3975069D00DC
:10025800831603131E08F50007300310F50CFF3E44
:10026800031D31297508F600F60E831203131D08C5
:100278007606EF3976069D001F08C33908389F00B7
:100288001F0CF500750C0F39023A031D4C294D2936
:1002980051291E088900C3309F052130F500F50B50
:1002A8005329831203130C139F1478088A00770EBE
:1002B8008300FE0E7E0E09000A128A11DD210A1241
:1002C8008A1101300A128A119A230A128A11683097
:1002D8000A128A119A230A128A1120300A128A11E4
:1002E8009A230A128A117F300A128A119A230A1253
:1002F8008A1138300A128A119A230A128A11963002
:100308000A128A119A230A128A1150300A128A1183
:100318009A230A128A11831203138C1E9429952991
:100328008F29D730AC002C08F400BE290A128A1194
:1003380067230A128A1165290A128A1130230A12C0
:100348008A1165290A128A11C2220A128A1165299C
:100358000A128A11F9220A128A1165290A128A11C7
:1003680054220A128A1165290A128A118B220A124A
:100378008A1165297408AC00AD012D08003A0319EB
:10038800C62965292C08323A0319A029013A03190C
:10039800A629073A0319AC29013A0319B229033AE5
:1003A8000319B829573A03199A2965290A128A1193
:1003B8000C288316031708148814081583160313CA
:1003C80005148514051506148710071108108810E0
:1003D80008118901831203138501860187018801A9
:1003E8008901831603130F178F160F160F149F1307
:1003F8001F129F12831203131F083F3980389F0072
:10040800C3309F052130F900F90B082A8312031322
:100418001F14F93083160313920007153F30831217
:10042800031397051708F0390C3897000F3095001B
:10043800CF309705831603138714831203131D08FF
:10044800F0390C389D000F309B009D128C10033042
:10045800920412158C1083160313071187101812B3
:100468001815831603178715CF30831603139900C1
:100478009A01831203139817181318168316031377
:1004880098168B170B170C17831203130C13423093
:10049800F900F90B4D2A0000831203139F1408007A
:1004A80083120313A201A3012308803AFF008030BE
:1004B8007F02031D612A10302202031C642A652A68
:1004C800662A8A2A8312031308150330831203133A
:1004D800AB009730AA00AA0B6F2AAB0B6F2A8312C6
:1004E80003130811323083120313AB005730AA00EC
:1004F800AA0B7C2AAB0B7C2A812A013083120313B6
:10050800A2070318A30A0030A307582A0800831279
:100518000313A001A1012108803AFF0080307F0267
:10052800031D982A10302002031C9B2A9C2A9D2A0E
:10053800C12A831203130815043083120313AB0076
:10054800E330AA00AA0BA62AAB0BA62AAB2A831271
:1005580003130811313083120313AB000B30AA00C8
:10056800AA0BB42AAB0BB42A013083120313A007D9
:100578000318A10A0030A1078F2A08008312031369
:10058800A601A7012708803AFF0080307F02031DDB
:10059800CF2A10302602031CD22AD32AD42AF82ABA
:1005A800831203138814033083120313AB009730AC
:1005B800AA00AA0BDD2AAB0BDD2A831203138810CD
:1005C800323083120313AB005730AA00AA0BEA2A71
:1005D800AB0BEA2AEF2A013083120313A60703188C
:1005E800A70A0030A707C62A080083120313A4012C
:1005F800A5012508803AFF0080307F02031D062BE5
:1006080010302402031C092B0A2B0B2B2F2B8312CF
:1006180003138814043083120313AB00E330AA00D9
:10062800AA0B142BAB0B142B192B83120313881052
:10063800313083120313AB000B30AA00AA0B222B14
:10064800AB0B222B013083120313A4070318A50A4E
:100658000030A507FD2A080083120313A801A90189
:100668002908803AFF0080307F02031D3D2B10309F
:100678002802031C402B412B422B662B83120313A9
:100688000814043083120313AB00E330AA00AA0B4A
:100698004B2BAB0B4B2B502B831203130810313011
:1006A80083120313AB000B30AA00AA0B592BAB0B18
:1006B800592B013083120313A8070318A90A003025
:1006C800A907342B0800F001F1017108803AFF00F6
:1006D80080307F02031D722B10307002031C752BB3
:1006E800762B772B992B831203130814033083126C
:1006F8000313AB009730AA00AA0B802BAB0B802BFF
:10070800831203130810323083120313AB005730DF
:10071800AA00AA0B8D2BAB0B8D2B922B0130F00767
:100728000318F10A0030F107692B0800831203133C
:10073800AB00B02B2B0884000A128A112A200A1257
:100748008A110A128A11BD230A128A1101308312F2
:100758000313AA002A08AB072B0884000A128A117F
:100768002A200A128A11003A031DBB2BBC2B9E2B90
:100778000800F90083160313981CC32BC42BBE2B47
:0A078800790883120313990008009A
:04400E00D430FF3F6C
:00000001FF
