:020000040000FA
:060000000A128A110C280F
:10000800FE00030EF7000A08F8000A128A11BF2C36
:100018000A128A110F28F001F101F201F301F4012B
:10002800F501F60183120313A001A101A201A301A6
:10003800A401A501A601A701A801A901AA01AB0174
:10004800AC01AD0183010A128A113028FF0000308B
:100058008A007F0882072F280A128A11B3220A12FF
:100068008A110030F900FA0061300A128A119924C5
:100078000A128A110130F9000030FA006E300A12B3
:100088008A1199240A128A110230F9000030FA0004
:1000980064300A128A1199240A128A110330F9006D
:1000A8000030FA0079300A128A1199240A128A114A
:1000B8000B1D5F2860287528831203130814881401
:1000C8000815033083120313AF009730AE00AE0B50
:1000D8006B28AF0B6B2883120313081088100811C4
:1000E8000B11831203130C1C7A287B288F28081401
:1000F80088140815063083120313AF002F30AE00A2
:10010800AE0B8428AF0B84288928831203130810A8
:10011800881008110C10061C9228932899288B1215
:100128000B11831603130C149E288B160B118316C0
:1001380003130C1083120313861CA328A428AA28CF
:100148008B160B11831603130C10AF288B120B118F
:10015800831603130C14831203139F18B428B528AD
:1001680007291F0CAE002E0C0F39003A031DBD28BD
:10017800BE28CE281E089500413083120313AE0016
:10018800AE0BC428C728831203131F08C3390438C9
:100198009F00FD281F0CAE002E0C0F39013A031DDD
:1001A800D628D728E7281E089B004130831203135E
:1001B800AE00AE0BDD28E028831203131F08C339F5
:1001C80008389F00FD281F0CAE002E0C0F39023A8C
:1001D800031DEF28F028FD281E08890041308312EE
:1001E8000313AE00AE0BF628F928C33083120313AD
:1001F8009F05413083120313AE00AE0B0129042979
:10020800831203139F1402300A128A117A240A12E5
:100218008A1169300A128A117A240A128A11213045
:100228000A128A117A240A128A1180300A128A1153
:100238007A240A128A1139300A128A117A240A1287
:100248008A1197300A128A117A240A128A115130B7
:100258000A128A117A240A128A11831203138C1A39
:10026800362937298F29D130AE002E08F6008F297C
:100278000A128A111A240A128A1130300A128A11B3
:10028800B2240A128A115C280A128A114A240A1214
:100298008A1135300A128A11B2240A128A115C288E
:1002A8000A128A11B2230A128A1130300A128A11EC
:1002B800B2240A128A115C280A128A11E6230A1249
:1002C8008A1135300A128A11B2240A128A115C285E
:1002D8000A128A114A230A128A1130300A128A1124
:1002E800B2240A128A115C280A128A117E230A1281
:1002F8008A1135300A128A11B2240A128A115C282E
:100308000A30F9000030FA001E080A128A119924EE
:100318000A128A115C287608AE00AF012F08003A4D
:10032800031997295C282E08313A03193C29033A06
:1003380003194829013A03195429073A031960296E
:10034800013A03196C29033A03197829013A031968
:0A03580084295C280A128A110C287F
:1004000002308A000408840A820700340A340D345A
:1004100020345134753465342034613463346334AA
:1004200069346F346E342034643465347334653425
:100430006134203465346A3465346334753474341B
:10044000613472343F3420340D340034203432347B
:10045000293420344D346F3476346534723420348A
:100460006134203434343534203473346534723498
:1004700076346F34313420340D3400342034333446
:10048000293420344D346F3476346534723420345A
:100490006134203434343534203473346534723468
:1004A00076346F34323420340D3400342034333415
:1004B000293420344D346F3476346534723420342A
:1004C0006134203434343534203473346534723438
:1004D00076346F34333420340D34003420343134E6
:1004E000293420344D346F347634653472342034FA
:1004F00061342034303420347334653472347634CB
:100500006F34313420340D34003420343334293402
:1005100020344D346F347634653472342034613491
:1005200020343034203473346534723476346F348C
:10053000323420340D340034203433342934203420
:100540004D346F3476346534723420346134203461
:100550003034203473346534723476346F34333449
:1005600020340D340034831603170814881408153A
:100570008316031305148514051506148710071137
:100580000810881008118901831203138501860160
:10059000870188018901831603130F178F160F1621
:1005A0000F148112011281110115811401146C3094
:1005B00083120313810090161012901510159010DD
:1005C0001014DC308F00B4308E00831603139F1399
:1005D0001F129F12831203131F083F3980389F0098
:1005E000C3309F052130F900F90BF42A831203135D
:1005F0001F14F93083160313920007153F3083123E
:10060000031397051708F0390C3897000F30950041
:10061000CF309705831603138714831203131D0825
:10062000F0390C389D000F309B009D128C10033068
:10063000920412158C1083160313071187101812D9
:1006400018158316031787150C30831603139900AA
:100650009A0183120313981718131816831603139D
:1006600098168B170B178B150B108B120B110C1088
:10067000831203130C10831603130C13831203133A
:100680000C134230F900F90B432B000083120313C3
:100690009F14080083120313A401A5012508803AC2
:1006A000FF0080307F02031D572B10302402031CF3
:1006B0005A2B5B2B5C2B7D2B831203130815033005
:1006C000FA009730F900F90B632BFA0B632B682BB8
:1006D0008312031308113230FA005830F900F90B75
:1006E0006F2BFA0B6F2B0000013083120313A4074A
:1006F0000318A50A0030A5074E2B08008312031328
:10070000A201A3012308803AFF0080307F02031D6D
:100710008B2B10302202031C8E2B8F2B902BB12B96
:100720008312031308150430FA00E430F900F90BC2
:10073000972BFA0B972B000083120313081131300B
:10074000FA000B30F900F90BA32BFA0BA32BA82B03
:10075000013083120313A2070318A30A0030A30772
:10076000822B080083120313A801A9012908803AEB
:10077000FF0080307F02031DBF2B10302802031CB6
:10078000C22BC32BC42BE52B831203138814033015
:10079000FA009730F900F90BCB2BFA0BCB2BD02BAF
:1007A0008312031388103230FA005830F900F90B25
:1007B000D72BFA0BD72B0000013083120313A807A5
:1007C0000318A90A0030A907B62B080083120313E7
:1007D000A601A7012708803AFF0080307F02031D91
:1007E000F32B10302602031CF62BF72BF82B192CB9
:1007F0008312031388140430FA00E430F900F90B73
:10080000FF2BFA0BFF2B00008312031388103130EB
:10081000FA000B30F900F90B0B2CFA0B0B2C102CF7
:10082000013083120313A6070318A70A0030A70795
:10083000EA2B0800F201F3017308803AFF008030D0
:100840007F02031D252C10307202031C282C292C3A
:100850002A2C492C8312031308140330FA00973012
:10086000F900F90B312CFA0B312C362C83120313BF
:1008700008103230FA005830F900F90B3D2CFA0B11
:100880003D2C00000130F2070318F30A0030F30793
:100890001C2C0800F001F1017108803AFF00803043
:1008A0007F02031D552C10307002031C582C592C4C
:1008B0005A2C792C8312031308140430FA00E43004
:1008C000F900F90B612CFA0B612C00008312031361
:1008D00008103130FA000B30F900F90B6D2CFA0BCF
:1008E0006D2C722C0130F0070318F10A0030F1076B
:1008F0004C2C0800FB008C2C7B0884000A128A1107
:1009000000220A128A110A128A11B2240A128A11CA
:100910000130FA007A08FB077B0884000A128A116A
:1009200000220A128A11003A031D972C982C7C2C65
:100930000800FB007908831203178D007B088C00E8
:10094000831603178C130C158B1355308D00AA30AA
:100950008D008C148B17831203130D12831603174B
:100960000C110800F900B82C7908831203139900C0
:1009700083160313981CBD2CBE2CB42C08007808D9
:0C0980008A00770E8300FE0E7E0E090038
:04400E00D420FF3F7C
:00000001FF
