:020000040000FA
:060000000A128A110C280F
:10000800FE00030EF0000A08F1000A128A115928AE
:100018000A128A110F2883010A128A113A288316B4
:100028000317880189018316031305148514051520
:100038000614861487018801890183120313850138
:100048008601870188018901831603130F178F160C
:100058000F120F148112011581140114161496142D
:100068008B178B168B150B110B1008000A128A11AF
:1000780013200A128A11831203130814C730F200DE
:100088004528F20B442848284928831203130810EE
:100098001930F300AB30F200F20B5028F30B502864
:1000A80055283F280A128A110C280B1C5C285D2849
:1000B800602883120313091471088A00700E8300E4
:0600C800FE0E7E0E090091
:04400E00D438FF3F64
:00000001FF
