:020000040000FA
:060000000A128A110C280F
:10000800FE00030EF2000A08F3000A128A111F28E4
:100018000A128A110F280A128A112D210A128A112E
:10002800F5000A128A112E210A128A11F60083019C
:100038000A128A1121290B1D22282328402803107F
:1000480083120313071E031403182B282F28831267
:100058000313071632288312031307120310091C0F
:100068000314031838283C288312031309143F2863
:100078008312031309100B080B1C43284428522829
:1000880083120313061C49284A284C2809140B100C
:10009800861C4F285028522889140B1083120313EA
:1000A8000C1F57285828B8281F0CF000700C0F395F
:1000B800003A031D602861288A281E08F0000310F2
:1000C800700C3E3E95001E080139F000F00EF00D50
:1000D80017087006DF3970069700831603131E0889
:1000E800F00007300310F00CFF3E031D762870085F
:1000F800F100F10E8312031317087106EF39710628
:1001080097001F08C33904389F00B0281E08F00064
:100118000310700C3E3E9B001E080139F000F00EE3
:10012800F00D1D087006DF3970069D008316031355
:100138001E08F00007300310F00CFF3E031D9F2837
:100148007008F100F10E831203131D087106EF39D0
:1001580071069D00C3309F052130F000F00BB228D6
:10016800831203130C139F1473088A00720E830002
:10017800FE0E7E0E0900073083160317880007302D
:1001880083160313850003308600870189018312D3
:1001980003138501860187018901831603130F174D
:1001A8008F160F120F148112811101158114011479
:1001B8009F131F129F12831203131F083F398038A1
:1001C8009F00C3309F051F142130F400F40BEA2868
:1001D800F93083160313920007153F308312031377
:1001E80097051708F0390C3897000F309500CF3075
:1001F8009705831603138714831203131D08F03918
:100208000C389D000F309B009D128C100330920417
:1002180012158C1C102911290D298C108316031313
:10022800071187108B170B170B110B101614961448
:100238000C17831203130C1308000A128A11BF202B
:100248000A128A11831203139F1429290A128A1188
:060258000C28B234003452
:04400E00D438FF3F64
:00000001FF
