:020000040000FA
:060000000A128A110C280F
:10000800FE00030EF2000A08F3000A128A111F28E4
:100018000A128A110F280A128A1114210A128A1147
:10002800F5000A128A1115210A128A11F6008301B5
:100038000A128A1103290B1D2228232833280310AA
:1000480083120313071E031403182B282F28831267
:100058000313071632288312031307120B0883129F
:1000680003130C1F3828392899281F0CF000700C2E
:100078000F39003A031D412842286B281E08F0005A
:100088000310700C3E3E95001E080139F000F00E7A
:10009800F00D17087006DF397006970083160313F2
:1000A8001E08F00007300310F00CFF3E031D572810
:1000B8007008F100F10E8312031317087106EF3967
:1000C800710697001F08C33904389F0091281E083D
:1000D800F0000310700C3E3E9B001E080139F00032
:1000E800F00EF00D1D087006DF3970069D008316AE
:1000F80003131E08F00007300310F00CFF3E031D29
:1001080080287008F100F10E831203131D08710690
:10011800EF3971069D00C3309F052130F000F00BC8
:100128009328831203130C139F1473088A00720E0A
:100138008300FE0E7E0E0900073083160317880021
:100148000730831603138500033086008701890171
:10015800831203138501860187018901831603131E
:100168000F178F160F120F148112811101158114A8
:1001780001149F131F129F12831203131F083F3984
:1001880080389F00C3309F051F142130F400F40B02
:10019800CB28F93083160313920007153F308312DA
:1001A800031397051708F0390C3897000F3095009E
:1001B800CF309705831603138714831203131D0882
:1001C800F0390C389D000F309B009D128C100330C5
:1001D800920412158C1CF128F228EE288C10831634
:1001E8000313071187108B170B178B160B110B10A6
:1001F800161496140C17831203130C1308000A1212
:100208008A11A0200A128A11831203139F14061C54
:100218000E290F290B2907160B290A128A110C28F7
:04022800B2340034B8
:04400E00D438FF3F64
:00000001FF
